{
  "_format": "hh-sol-artifact-1",
  "contractName": "TwoPhaseCommit",
  "sourceName": "contracts/TwoPhaseCommit.sol",
  "abi": [
    {
      "inputs": [],
      "stateMutability": "nonpayable",
      "type": "constructor"
    },
    {
      "anonymous": false,
      "inputs": [
        {
          "indexed": false,
          "internalType": "bytes",
          "name": "encryptedData",
          "type": "bytes"
        },
        {
          "indexed": false,
          "internalType": "string",
          "name": "owner",
          "type": "string"
        },
        {
          "indexed": false,
          "internalType": "string",
          "name": "dataName",
          "type": "string"
        },
        {
          "indexed": false,
          "internalType": "bytes",
          "name": "hash",
          "type": "bytes"
        }
      ],
      "name": "PushEncryptedData",
      "type": "event"
    },
    {
      "anonymous": false,
      "inputs": [
        {
          "indexed": false,
          "internalType": "bytes",
          "name": "decryptionKey",
          "type": "bytes"
        },
        {
          "indexed": false,
          "internalType": "string",
          "name": "owner",
          "type": "string"
        },
        {
          "indexed": false,
          "internalType": "string",
          "name": "dataName",
          "type": "string"
        },
        {
          "indexed": false,
          "internalType": "bytes",
          "name": "hash",
          "type": "bytes"
        }
      ],
      "name": "PushPrivateKey",
      "type": "event"
    },
    {
      "inputs": [
        {
          "internalType": "bytes",
          "name": "_encryptedData",
          "type": "bytes"
        },
        {
          "internalType": "bytes",
          "name": "_decryptionKey",
          "type": "bytes"
        },
        {
          "internalType": "string",
          "name": "_owner",
          "type": "string"
        },
        {
          "internalType": "string",
          "name": "_dataName",
          "type": "string"
        },
        {
          "internalType": "uint256",
          "name": "_releaseTime",
          "type": "uint256"
        },
        {
          "internalType": "bytes",
          "name": "_hash",
          "type": "bytes"
        }
      ],
      "name": "addStoredData",
      "outputs": [],
      "stateMutability": "nonpayable",
      "type": "function"
    },
    {
      "inputs": [],
      "name": "clearStoredData",
      "outputs": [],
      "stateMutability": "nonpayable",
      "type": "function"
    },
    {
      "inputs": [],
      "name": "returnStoredData",
      "outputs": [
        {
          "components": [
            {
              "internalType": "bytes",
              "name": "encryptedData",
              "type": "bytes"
            },
            {
              "internalType": "bytes",
              "name": "decryptionKey",
              "type": "bytes"
            },
            {
              "internalType": "bytes",
              "name": "hash",
              "type": "bytes"
            },
            {
              "internalType": "string",
              "name": "owner",
              "type": "string"
            },
            {
              "internalType": "string",
              "name": "dataName",
              "type": "string"
            },
            {
              "internalType": "int256",
              "name": "phase",
              "type": "int256"
            },
            {
              "internalType": "uint256",
              "name": "releaseTime",
              "type": "uint256"
            }
          ],
          "internalType": "struct TwoPhaseCommit.StoredData[]",
          "name": "",
          "type": "tuple[]"
        }
      ],
      "stateMutability": "view",
      "type": "function"
    },
    {
      "inputs": [
        {
          "internalType": "uint256",
          "name": "index",
          "type": "uint256"
        }
      ],
      "name": "sendDecryptionKey",
      "outputs": [
        {
          "internalType": "string",
          "name": "",
          "type": "string"
        }
      ],
      "stateMutability": "nonpayable",
      "type": "function"
    },
    {
      "inputs": [
        {
          "internalType": "uint256",
          "name": "index",
          "type": "uint256"
        }
      ],
      "name": "sendEncryptedData",
      "outputs": [
        {
          "internalType": "string",
          "name": "",
          "type": "string"
        }
      ],
      "stateMutability": "nonpayable",
      "type": "function"
    },
    {
      "inputs": [
        {
          "internalType": "uint256",
          "name": "",
          "type": "uint256"
        }
      ],
      "name": "storedData",
      "outputs": [
        {
          "internalType": "bytes",
          "name": "encryptedData",
          "type": "bytes"
        },
        {
          "internalType": "bytes",
          "name": "decryptionKey",
          "type": "bytes"
        },
        {
          "internalType": "bytes",
          "name": "hash",
          "type": "bytes"
        },
        {
          "internalType": "string",
          "name": "owner",
          "type": "string"
        },
        {
          "internalType": "string",
          "name": "dataName",
          "type": "string"
        },
        {
          "internalType": "int256",
          "name": "phase",
          "type": "int256"
        },
        {
          "internalType": "uint256",
          "name": "releaseTime",
          "type": "uint256"
        }
      ],
      "stateMutability": "view",
      "type": "function"
    }
  ],
  "bytecode": "0x608060405234801561001057600080fd5b50735498bb86bc934c8d34fda08e81d444153d0d06ad600160006101000a81548173ffffffffffffffffffffffffffffffffffffffff021916908373ffffffffffffffffffffffffffffffffffffffff160217905550612398806100756000396000f3fe608060405234801561001057600080fd5b50600436106100625760003560e01c806330377174146100675780634079e7cf1461009d5780637b43f201146100a7578063b2323110146100d7578063cb735951146100f5578063e7ba73a314610125575b600080fd5b610081600480360381019061007c91906113b3565b610141565b60405161009497969594939291906114ed565b60405180910390f35b6100a561043b565b005b6100c160048036038101906100bc91906113b3565b61044a565b6040516100ce919061157f565b60405180910390f35b6100df61085c565b6040516100ec91906117cd565b60405180910390f35b61010f600480360381019061010a91906113b3565b610ba9565b60405161011c919061157f565b60405180910390f35b61013f600480360381019061013a91906119c5565b610faf565b005b6000818154811061015157600080fd5b906000526020600020906007020160009150905080600001805461017490611b0d565b80601f01602080910402602001604051908101604052809291908181526020018280546101a090611b0d565b80156101ed5780601f106101c2576101008083540402835291602001916101ed565b820191906000526020600020905b8154815290600101906020018083116101d057829003601f168201915b50505050509080600101805461020290611b0d565b80601f016020809104026020016040519081016040528092919081815260200182805461022e90611b0d565b801561027b5780601f106102505761010080835404028352916020019161027b565b820191906000526020600020905b81548152906001019060200180831161025e57829003601f168201915b50505050509080600201805461029090611b0d565b80601f01602080910402602001604051908101604052809291908181526020018280546102bc90611b0d565b80156103095780601f106102de57610100808354040283529160200191610309565b820191906000526020600020905b8154815290600101906020018083116102ec57829003601f168201915b50505050509080600301805461031e90611b0d565b80601f016020809104026020016040519081016040528092919081815260200182805461034a90611b0d565b80156103975780601f1061036c57610100808354040283529160200191610397565b820191906000526020600020905b81548152906001019060200180831161037a57829003601f168201915b5050505050908060040180546103ac90611b0d565b80601f01602080910402602001604051908101604052809291908181526020018280546103d890611b0d565b80156104255780601f106103fa57610100808354040283529160200191610425565b820191906000526020600020905b81548152906001019060200180831161040857829003601f168201915b5050505050908060050154908060060154905087565b6000806104489190611231565b565b606061a8c06000838154811061046357610462611b3e565b5b90600052602060002090600702016006015461047f9190611b9c565b42116104c0576040517f08c379a00000000000000000000000000000000000000000000000000000000081526004016104b790611c1c565b60405180910390fd5b60008083815481106104d5576104d4611b3e565b5b90600052602060002090600702016040518060e00160405290816000820180546104fe90611b0d565b80601f016020809104026020016040519081016040528092919081815260200182805461052a90611b0d565b80156105775780601f1061054c57610100808354040283529160200191610577565b820191906000526020600020905b81548152906001019060200180831161055a57829003601f168201915b5050505050815260200160018201805461059090611b0d565b80601f01602080910402602001604051908101604052809291908181526020018280546105bc90611b0d565b80156106095780601f106105de57610100808354040283529160200191610609565b820191906000526020600020905b8154815290600101906020018083116105ec57829003601f168201915b5050505050815260200160028201805461062290611b0d565b80601f016020809104026020016040519081016040528092919081815260200182805461064e90611b0d565b801561069b5780601f106106705761010080835404028352916020019161069b565b820191906000526020600020905b81548152906001019060200180831161067e57829003601f168201915b505050505081526020016003820180546106b490611b0d565b80601f01602080910402602001604051908101604052809291908181526020018280546106e090611b0d565b801561072d5780601f106107025761010080835404028352916020019161072d565b820191906000526020600020905b81548152906001019060200180831161071057829003601f168201915b5050505050815260200160048201805461074690611b0d565b80601f016020809104026020016040519081016040528092919081815260200182805461077290611b0d565b80156107bf5780601f10610794576101008083540402835291602001916107bf565b820191906000526020600020905b8154815290600101906020018083116107a257829003601f168201915b505050505081526020016005820154815260200160068201548152505090506001600084815481106107f4576107f3611b3e565b5b9060005260206000209060070201600501819055507f34612b93358718834a881d1ac0ce5761ae32c154520e993ca471065abd5838ed816000015182606001518360800151846040015160405161084e9493929190611c3c565b60405180910390a150919050565b60606000805480602002602001604051908101604052809291908181526020016000905b82821015610ba057838290600052602060002090600702016040518060e00160405290816000820180546108b390611b0d565b80601f01602080910402602001604051908101604052809291908181526020018280546108df90611b0d565b801561092c5780601f106109015761010080835404028352916020019161092c565b820191906000526020600020905b81548152906001019060200180831161090f57829003601f168201915b5050505050815260200160018201805461094590611b0d565b80601f016020809104026020016040519081016040528092919081815260200182805461097190611b0d565b80156109be5780601f10610993576101008083540402835291602001916109be565b820191906000526020600020905b8154815290600101906020018083116109a157829003601f168201915b505050505081526020016002820180546109d790611b0d565b80601f0160208091040260200160405190810160405280929190818152602001828054610a0390611b0d565b8015610a505780601f10610a2557610100808354040283529160200191610a50565b820191906000526020600020905b815481529060010190602001808311610a3357829003601f168201915b50505050508152602001600382018054610a6990611b0d565b80601f0160208091040260200160405190810160405280929190818152602001828054610a9590611b0d565b8015610ae25780601f10610ab757610100808354040283529160200191610ae2565b820191906000526020600020905b815481529060010190602001808311610ac557829003601f168201915b50505050508152602001600482018054610afb90611b0d565b80601f0160208091040260200160405190810160405280929190818152602001828054610b2790611b0d565b8015610b745780601f10610b4957610100808354040283529160200191610b74565b820191906000526020600020905b815481529060010190602001808311610b5757829003601f168201915b505050505081526020016005820154815260200160068201548152505081526020019060010190610880565b50505050905090565b606060008281548110610bbf57610bbe611b3e565b5b906000526020600020906007020160060154421015610c13576040517f08c379a0000000000000000000000000000000000000000000000000000000008152600401610c0a90611d0f565b60405180910390fd5b600260008381548110610c2957610c28611b3e565b5b9060005260206000209060070201600501819055506000808381548110610c5357610c52611b3e565b5b90600052602060002090600702016040518060e0016040529081600082018054610c7c90611b0d565b80601f0160208091040260200160405190810160405280929190818152602001828054610ca890611b0d565b8015610cf55780601f10610cca57610100808354040283529160200191610cf5565b820191906000526020600020905b815481529060010190602001808311610cd857829003601f168201915b50505050508152602001600182018054610d0e90611b0d565b80601f0160208091040260200160405190810160405280929190818152602001828054610d3a90611b0d565b8015610d875780601f10610d5c57610100808354040283529160200191610d87565b820191906000526020600020905b815481529060010190602001808311610d6a57829003601f168201915b50505050508152602001600282018054610da090611b0d565b80601f0160208091040260200160405190810160405280929190818152602001828054610dcc90611b0d565b8015610e195780601f10610dee57610100808354040283529160200191610e19565b820191906000526020600020905b815481529060010190602001808311610dfc57829003601f168201915b50505050508152602001600382018054610e3290611b0d565b80601f0160208091040260200160405190810160405280929190818152602001828054610e5e90611b0d565b8015610eab5780601f10610e8057610100808354040283529160200191610eab565b820191906000526020600020905b815481529060010190602001808311610e8e57829003601f168201915b50505050508152602001600482018054610ec490611b0d565b80601f0160208091040260200160405190810160405280929190818152602001828054610ef090611b0d565b8015610f3d5780601f10610f1257610100808354040283529160200191610f3d565b820191906000526020600020905b815481529060010190602001808311610f2057829003601f168201915b505050505081526020016005820154815260200160068201548152505090507f6ae77c5bf1ebeb12d95523f4ca013a33926cea138614320b9af10415973890ca8160200151826060015183608001518460400151604051610fa19493929190611c3c565b60405180910390a150919050565b6000865111610ff3576040517f08c379a0000000000000000000000000000000000000000000000000000000008152600401610fea90611d7b565b60405180910390fd5b6000855111611037576040517f08c379a000000000000000000000000000000000000000000000000000000000815260040161102e90611de7565b60405180910390fd5b600084511161107b576040517f08c379a000000000000000000000000000000000000000000000000000000000815260040161107290611e53565b60405180910390fd5b60008351116110bf576040517f08c379a00000000000000000000000000000000000000000000000000000000081526004016110b690611ebf565b60405180910390fd5b60008211611102576040517f08c379a00000000000000000000000000000000000000000000000000000000081526004016110f990611f2b565b60405180910390fd5b6000815111611146576040517f08c379a000000000000000000000000000000000000000000000000000000000815260040161113d90611f97565b60405180910390fd5b60006040518060e001604052808881526020018781526020018381526020018681526020018581526020016000815260200184815250908060018154018082558091505060019003906000526020600020906007020160009091909190915060008201518160000190816111ba9190612163565b5060208201518160010190816111d09190612163565b5060408201518160020190816111e69190612163565b5060608201518160030190816111fc9190612290565b5060808201518160040190816112129190612290565b5060a0820151816005015560c082015181600601555050505050505050565b50805460008255600702906000526020600020908101906112529190611255565b50565b5b808211156112c8576000808201600061126f91906112cc565b60018201600061127f91906112cc565b60028201600061128f91906112cc565b60038201600061129f919061130c565b6004820160006112af919061130c565b6005820160009055600682016000905550600701611256565b5090565b5080546112d890611b0d565b6000825580601f106112ea5750611309565b601f016020900490600052602060002090810190611308919061134c565b5b50565b50805461131890611b0d565b6000825580601f1061132a5750611349565b601f016020900490600052602060002090810190611348919061134c565b5b50565b5b8082111561136557600081600090555060010161134d565b5090565b6000604051905090565b600080fd5b600080fd5b6000819050919050565b6113908161137d565b811461139b57600080fd5b50565b6000813590506113ad81611387565b92915050565b6000602082840312156113c9576113c8611373565b5b60006113d78482850161139e565b91505092915050565b600081519050919050565b600082825260208201905092915050565b60005b8381101561141a5780820151818401526020810190506113ff565b60008484015250505050565b6000601f19601f8301169050919050565b6000611442826113e0565b61144c81856113eb565b935061145c8185602086016113fc565b61146581611426565b840191505092915050565b600081519050919050565b600082825260208201905092915050565b600061149782611470565b6114a1818561147b565b93506114b18185602086016113fc565b6114ba81611426565b840191505092915050565b6000819050919050565b6114d8816114c5565b82525050565b6114e78161137d565b82525050565b600060e0820190508181036000830152611507818a611437565b9050818103602083015261151b8189611437565b9050818103604083015261152f8188611437565b90508181036060830152611543818761148c565b90508181036080830152611557818661148c565b905061156660a08301856114cf565b61157360c08301846114de565b98975050505050505050565b60006020820190508181036000830152611599818461148c565b905092915050565b600081519050919050565b600082825260208201905092915050565b6000819050602082019050919050565b600082825260208201905092915050565b60006115e9826113e0565b6115f381856115cd565b93506116038185602086016113fc565b61160c81611426565b840191505092915050565b600082825260208201905092915050565b600061163382611470565b61163d8185611617565b935061164d8185602086016113fc565b61165681611426565b840191505092915050565b61166a816114c5565b82525050565b6116798161137d565b82525050565b600060e083016000830151848203600086015261169c82826115de565b915050602083015184820360208601526116b682826115de565b915050604083015184820360408601526116d082826115de565b915050606083015184820360608601526116ea8282611628565b915050608083015184820360808601526117048282611628565b91505060a083015161171960a0860182611661565b5060c083015161172c60c0860182611670565b508091505092915050565b6000611743838361167f565b905092915050565b6000602082019050919050565b6000611763826115a1565b61176d81856115ac565b93508360208202850161177f856115bd565b8060005b858110156117bb578484038952815161179c8582611737565b94506117a78361174b565b925060208a01995050600181019050611783565b50829750879550505050505092915050565b600060208201905081810360008301526117e78184611758565b905092915050565b600080fd5b600080fd5b7f4e487b7100000000000000000000000000000000000000000000000000000000600052604160045260246000fd5b61183182611426565b810181811067ffffffffffffffff821117156118505761184f6117f9565b5b80604052505050565b6000611863611369565b905061186f8282611828565b919050565b600067ffffffffffffffff82111561188f5761188e6117f9565b5b61189882611426565b9050602081019050919050565b82818337600083830152505050565b60006118c76118c284611874565b611859565b9050828152602081018484840111156118e3576118e26117f4565b5b6118ee8482856118a5565b509392505050565b600082601f83011261190b5761190a6117ef565b5b813561191b8482602086016118b4565b91505092915050565b600067ffffffffffffffff82111561193f5761193e6117f9565b5b61194882611426565b9050602081019050919050565b600061196861196384611924565b611859565b905082815260208101848484011115611984576119836117f4565b5b61198f8482856118a5565b509392505050565b600082601f8301126119ac576119ab6117ef565b5b81356119bc848260208601611955565b91505092915050565b60008060008060008060c087890312156119e2576119e1611373565b5b600087013567ffffffffffffffff811115611a00576119ff611378565b5b611a0c89828a016118f6565b965050602087013567ffffffffffffffff811115611a2d57611a2c611378565b5b611a3989828a016118f6565b955050604087013567ffffffffffffffff811115611a5a57611a59611378565b5b611a6689828a01611997565b945050606087013567ffffffffffffffff811115611a8757611a86611378565b5b611a9389828a01611997565b9350506080611aa489828a0161139e565b92505060a087013567ffffffffffffffff811115611ac557611ac4611378565b5b611ad189828a016118f6565b9150509295509295509295565b7f4e487b7100000000000000000000000000000000000000000000000000000000600052602260045260246000fd5b60006002820490506001821680611b2557607f821691505b602082108103611b3857611b37611ade565b5b50919050565b7f4e487b7100000000000000000000000000000000000000000000000000000000600052603260045260246000fd5b7f4e487b7100000000000000000000000000000000000000000000000000000000600052601160045260246000fd5b6000611ba78261137d565b9150611bb28361137d565b9250828203905081811115611bca57611bc9611b6d565b5b92915050565b7f4461746120686173206e6f74206265656e2072656c6561736564207965740000600082015250565b6000611c06601e8361147b565b9150611c1182611bd0565b602082019050919050565b60006020820190508181036000830152611c3581611bf9565b9050919050565b60006080820190508181036000830152611c568187611437565b90508181036020830152611c6a818661148c565b90508181036040830152611c7e818561148c565b90508181036060830152611c928184611437565b905095945050505050565b7f44656372797074696f6e206b657920686173206e6f74206265656e2072656c6560008201527f6173656420796574000000000000000000000000000000000000000000000000602082015250565b6000611cf960288361147b565b9150611d0482611c9d565b604082019050919050565b60006020820190508181036000830152611d2881611cec565b9050919050565b7f456e637279707465642064617461206973207265717569726564000000000000600082015250565b6000611d65601a8361147b565b9150611d7082611d2f565b602082019050919050565b60006020820190508181036000830152611d9481611d58565b9050919050565b7f44656372797074696f6e206b6579206973207265717569726564000000000000600082015250565b6000611dd1601a8361147b565b9150611ddc82611d9b565b602082019050919050565b60006020820190508181036000830152611e0081611dc4565b9050919050565b7f4f776e6572206973207265717569726564000000000000000000000000000000600082015250565b6000611e3d60118361147b565b9150611e4882611e07565b602082019050919050565b60006020820190508181036000830152611e6c81611e30565b9050919050565b7f44617461206e616d652069732072657175697265640000000000000000000000600082015250565b6000611ea960158361147b565b9150611eb482611e73565b602082019050919050565b60006020820190508181036000830152611ed881611e9c565b9050919050565b7f52656c656173652074696d652069732072657175697265640000000000000000600082015250565b6000611f1560188361147b565b9150611f2082611edf565b602082019050919050565b60006020820190508181036000830152611f4481611f08565b9050919050565b7f4861736820697320726571756972656400000000000000000000000000000000600082015250565b6000611f8160108361147b565b9150611f8c82611f4b565b602082019050919050565b60006020820190508181036000830152611fb081611f74565b9050919050565b60008190508160005260206000209050919050565b60006020601f8301049050919050565b600082821b905092915050565b6000600883026120197fffffffffffffffffffffffffffffffffffffffffffffffffffffffffffffffff82611fdc565b6120238683611fdc565b95508019841693508086168417925050509392505050565b6000819050919050565b600061206061205b6120568461137d565b61203b565b61137d565b9050919050565b6000819050919050565b61207a83612045565b61208e61208682612067565b848454611fe9565b825550505050565b600090565b6120a3612096565b6120ae818484612071565b505050565b5b818110156120d2576120c760008261209b565b6001810190506120b4565b5050565b601f821115612117576120e881611fb7565b6120f184611fcc565b81016020851015612100578190505b61211461210c85611fcc565b8301826120b3565b50505b505050565b600082821c905092915050565b600061213a6000198460080261211c565b1980831691505092915050565b60006121538383612129565b9150826002028217905092915050565b61216c826113e0565b67ffffffffffffffff811115612185576121846117f9565b5b61218f8254611b0d565b61219a8282856120d6565b600060209050601f8311600181146121cd57600084156121bb578287015190505b6121c58582612147565b86555061222d565b601f1984166121db86611fb7565b60005b82811015612203578489015182556001820191506020850194506020810190506121de565b86831015612220578489015161221c601f891682612129565b8355505b6001600288020188555050505b505050505050565b60008190508160005260206000209050919050565b601f82111561228b5761225c81612235565b61226584611fcc565b81016020851015612274578190505b61228861228085611fcc565b8301826120b3565b50505b505050565b61229982611470565b67ffffffffffffffff8111156122b2576122b16117f9565b5b6122bc8254611b0d565b6122c782828561224a565b600060209050601f8311600181146122fa57600084156122e8578287015190505b6122f28582612147565b86555061235a565b601f19841661230886612235565b60005b828110156123305784890151825560018201915060208501945060208101905061230b565b8683101561234d5784890151612349601f891682612129565b8355505b6001600288020188555050505b50505050505056fea2646970667358221220f19e8b26b781ecbe54c481a7d874a8ba25b584edfb05773360380f7f6958a9ac64736f6c63430008130033",
  "linkReferences": {},
  "deployedLinkReferences": {}
}