{
  "_format": "hh-sol-artifact-1",
  "contractName": "TwoPhaseCommit",
  "sourceName": "contracts/TwoPhaseCommit.sol",
  "abi": [
    {
      "inputs": [],
      "stateMutability": "nonpayable",
      "type": "constructor"
    },
    {
      "anonymous": false,
      "inputs": [
        {
          "indexed": false,
          "internalType": "bytes",
          "name": "encryptedData",
          "type": "bytes"
        },
        {
          "indexed": false,
          "internalType": "string",
          "name": "owner",
          "type": "string"
        },
        {
          "indexed": false,
          "internalType": "string",
          "name": "dataName",
          "type": "string"
        },
        {
          "indexed": false,
          "internalType": "bytes",
          "name": "hash",
          "type": "bytes"
        }
      ],
      "name": "PushEncryptedData",
      "type": "event"
    },
    {
      "anonymous": false,
      "inputs": [
        {
          "indexed": false,
          "internalType": "bytes",
          "name": "decryptionKey",
          "type": "bytes"
        },
        {
          "indexed": false,
          "internalType": "string",
          "name": "owner",
          "type": "string"
        },
        {
          "indexed": false,
          "internalType": "string",
          "name": "dataName",
          "type": "string"
        },
        {
          "indexed": false,
          "internalType": "bytes",
          "name": "hash",
          "type": "bytes"
        }
      ],
      "name": "PushPrivateKey",
      "type": "event"
    },
    {
      "inputs": [
        {
          "internalType": "string",
          "name": "_dataName",
          "type": "string"
        },
        {
          "internalType": "string",
          "name": "_owner",
          "type": "string"
        }
      ],
      "name": "GetPublicData",
      "outputs": [
        {
          "components": [
            {
              "internalType": "bytes",
              "name": "encryptedData",
              "type": "bytes"
            },
            {
              "internalType": "bytes",
              "name": "hash",
              "type": "bytes"
            },
            {
              "internalType": "string",
              "name": "owner",
              "type": "string"
            },
            {
              "internalType": "string",
              "name": "dataName",
              "type": "string"
            },
            {
              "internalType": "uint256",
              "name": "releaseTime",
              "type": "uint256"
            }
          ],
          "internalType": "struct TwoPhaseCommit.PublicData",
          "name": "",
          "type": "tuple"
        }
      ],
      "stateMutability": "view",
      "type": "function"
    },
    {
      "inputs": [
        {
          "internalType": "bytes",
          "name": "_encryptedData",
          "type": "bytes"
        },
        {
          "internalType": "bytes",
          "name": "_decryptionKey",
          "type": "bytes"
        },
        {
          "internalType": "string",
          "name": "_owner",
          "type": "string"
        },
        {
          "internalType": "string",
          "name": "_dataName",
          "type": "string"
        },
        {
          "internalType": "uint256",
          "name": "_releaseTime",
          "type": "uint256"
        },
        {
          "internalType": "bytes",
          "name": "_hash",
          "type": "bytes"
        }
      ],
      "name": "addStoredData",
      "outputs": [],
      "stateMutability": "nonpayable",
      "type": "function"
    },
    {
      "inputs": [],
      "name": "clearStoredData",
      "outputs": [],
      "stateMutability": "nonpayable",
      "type": "function"
    },
    {
      "inputs": [],
      "name": "returnStoredData",
      "outputs": [
        {
          "components": [
            {
              "internalType": "bytes",
              "name": "encryptedData",
              "type": "bytes"
            },
            {
              "internalType": "bytes",
              "name": "decryptionKey",
              "type": "bytes"
            },
            {
              "internalType": "bytes",
              "name": "hash",
              "type": "bytes"
            },
            {
              "internalType": "string",
              "name": "owner",
              "type": "string"
            },
            {
              "internalType": "string",
              "name": "dataName",
              "type": "string"
            },
            {
              "internalType": "int256",
              "name": "phase",
              "type": "int256"
            },
            {
              "internalType": "uint256",
              "name": "releaseTime",
              "type": "uint256"
            }
          ],
          "internalType": "struct TwoPhaseCommit.StoredData[]",
          "name": "",
          "type": "tuple[]"
        }
      ],
      "stateMutability": "view",
      "type": "function"
    },
    {
      "inputs": [
        {
          "internalType": "uint256",
          "name": "index",
          "type": "uint256"
        }
      ],
      "name": "sendDecryptionKey",
      "outputs": [
        {
          "internalType": "string",
          "name": "",
          "type": "string"
        }
      ],
      "stateMutability": "nonpayable",
      "type": "function"
    },
    {
      "inputs": [
        {
          "internalType": "uint256",
          "name": "index",
          "type": "uint256"
        }
      ],
      "name": "sendEncryptedData",
      "outputs": [
        {
          "internalType": "string",
          "name": "",
          "type": "string"
        }
      ],
      "stateMutability": "nonpayable",
      "type": "function"
    },
    {
      "inputs": [
        {
          "internalType": "uint256",
          "name": "",
          "type": "uint256"
        }
      ],
      "name": "storedData",
      "outputs": [
        {
          "internalType": "bytes",
          "name": "encryptedData",
          "type": "bytes"
        },
        {
          "internalType": "bytes",
          "name": "decryptionKey",
          "type": "bytes"
        },
        {
          "internalType": "bytes",
          "name": "hash",
          "type": "bytes"
        },
        {
          "internalType": "string",
          "name": "owner",
          "type": "string"
        },
        {
          "internalType": "string",
          "name": "dataName",
          "type": "string"
        },
        {
          "internalType": "int256",
          "name": "phase",
          "type": "int256"
        },
        {
          "internalType": "uint256",
          "name": "releaseTime",
          "type": "uint256"
        }
      ],
      "stateMutability": "view",
      "type": "function"
    }
  ],
  "bytecode": "0x608060405234801561001057600080fd5b50735498bb86bc934c8d34fda08e81d444153d0d06ad600160006101000a81548173ffffffffffffffffffffffffffffffffffffffff021916908373ffffffffffffffffffffffffffffffffffffffff160217905550612d3e806100756000396000f3fe608060405234801561001057600080fd5b506004361061007d5760003560e01c80637b43f2011161005b5780637b43f201146100f2578063b232311014610122578063cb73595114610140578063e7ba73a3146101705761007d565b806330377174146100825780634079e7cf146100b857806378cb8526146100c2575b600080fd5b61009c600480360381019061009791906119db565b61018c565b6040516100af9796959493929190611b15565b60405180910390f35b6100c0610486565b005b6100dc60048036038101906100d79190611cdc565b610495565b6040516100e99190611e82565b60405180910390f35b61010c600480360381019061010791906119db565b6109a5565b6040516101199190611ea4565b60405180910390f35b61012a610db7565b604051610137919061204f565b60405180910390f35b61015a600480360381019061015591906119db565b611104565b6040516101679190611ea4565b60405180910390f35b61018a60048036038101906101859190612112565b61150a565b005b6000818154811061019c57600080fd5b90600052602060002090600702016000915090508060000180546101bf9061225a565b80601f01602080910402602001604051908101604052809291908181526020018280546101eb9061225a565b80156102385780601f1061020d57610100808354040283529160200191610238565b820191906000526020600020905b81548152906001019060200180831161021b57829003601f168201915b50505050509080600101805461024d9061225a565b80601f01602080910402602001604051908101604052809291908181526020018280546102799061225a565b80156102c65780601f1061029b576101008083540402835291602001916102c6565b820191906000526020600020905b8154815290600101906020018083116102a957829003601f168201915b5050505050908060020180546102db9061225a565b80601f01602080910402602001604051908101604052809291908181526020018280546103079061225a565b80156103545780601f1061032957610100808354040283529160200191610354565b820191906000526020600020905b81548152906001019060200180831161033757829003601f168201915b5050505050908060030180546103699061225a565b80601f01602080910402602001604051908101604052809291908181526020018280546103959061225a565b80156103e25780601f106103b7576101008083540402835291602001916103e2565b820191906000526020600020905b8154815290600101906020018083116103c557829003601f168201915b5050505050908060040180546103f79061225a565b80601f01602080910402602001604051908101604052809291908181526020018280546104239061225a565b80156104705780601f1061044557610100808354040283529160200191610470565b820191906000526020600020905b81548152906001019060200180831161045357829003601f168201915b5050505050908060050154908060060154905087565b600080610493919061182a565b565b61049d61184e565b60005b6000805490508110156108bb57836040516020016104be91906122c7565b60405160208183030381529060405280519060200120600082815481106104e8576104e76122de565b5b906000526020600020906007020160040160405160200161050991906123a5565b6040516020818303038152906040528051906020012014801561059b57508260405160200161053891906122c7565b6040516020818303038152906040528051906020012060008281548110610562576105616122de565b5b906000526020600020906007020160030160405160200161058391906123a5565b60405160208183030381529060405280519060200120145b156108a8576040518060a00160405280600083815481106105bf576105be6122de565b5b906000526020600020906007020160000180546105db9061225a565b80601f01602080910402602001604051908101604052809291908181526020018280546106079061225a565b80156106545780601f1061062957610100808354040283529160200191610654565b820191906000526020600020905b81548152906001019060200180831161063757829003601f168201915b5050505050815260200160008381548110610672576106716122de565b5b9060005260206000209060070201600201805461068e9061225a565b80601f01602080910402602001604051908101604052809291908181526020018280546106ba9061225a565b80156107075780601f106106dc57610100808354040283529160200191610707565b820191906000526020600020905b8154815290600101906020018083116106ea57829003601f168201915b5050505050815260200160008381548110610725576107246122de565b5b906000526020600020906007020160030180546107419061225a565b80601f016020809104026020016040519081016040528092919081815260200182805461076d9061225a565b80156107ba5780601f1061078f576101008083540402835291602001916107ba565b820191906000526020600020905b81548152906001019060200180831161079d57829003601f168201915b50505050508152602001600083815481106107d8576107d76122de565b5b906000526020600020906007020160040180546107f49061225a565b80601f01602080910402602001604051908101604052809291908181526020018280546108209061225a565b801561086d5780601f106108425761010080835404028352916020019161086d565b820191906000526020600020905b81548152906001019060200180831161085057829003601f168201915b505050505081526020016000838154811061088b5761088a6122de565b5b90600052602060002090600702016006015481525091505061099f565b80806108b3906123eb565b9150506104a0565b506040518060a00160405280600067ffffffffffffffff8111156108e2576108e1611bb1565b5b6040519080825280601f01601f1916602001820160405280156109145781602001600182028036833780820191505090505b508152602001600067ffffffffffffffff81111561093557610934611bb1565b5b6040519080825280601f01601f1916602001820160405280156109675781602001600182028036833780820191505090505b508152602001604051806020016040528060008152508152602001604051806020016040528060008152508152602001600081525090505b92915050565b606061a8c0600083815481106109be576109bd6122de565b5b9060005260206000209060070201600601546109da9190612433565b4211610a1b576040517f08c379a0000000000000000000000000000000000000000000000000000000008152600401610a12906124b3565b60405180910390fd5b6000808381548110610a3057610a2f6122de565b5b90600052602060002090600702016040518060e0016040529081600082018054610a599061225a565b80601f0160208091040260200160405190810160405280929190818152602001828054610a859061225a565b8015610ad25780601f10610aa757610100808354040283529160200191610ad2565b820191906000526020600020905b815481529060010190602001808311610ab557829003601f168201915b50505050508152602001600182018054610aeb9061225a565b80601f0160208091040260200160405190810160405280929190818152602001828054610b179061225a565b8015610b645780601f10610b3957610100808354040283529160200191610b64565b820191906000526020600020905b815481529060010190602001808311610b4757829003601f168201915b50505050508152602001600282018054610b7d9061225a565b80601f0160208091040260200160405190810160405280929190818152602001828054610ba99061225a565b8015610bf65780601f10610bcb57610100808354040283529160200191610bf6565b820191906000526020600020905b815481529060010190602001808311610bd957829003601f168201915b50505050508152602001600382018054610c0f9061225a565b80601f0160208091040260200160405190810160405280929190818152602001828054610c3b9061225a565b8015610c885780601f10610c5d57610100808354040283529160200191610c88565b820191906000526020600020905b815481529060010190602001808311610c6b57829003601f168201915b50505050508152602001600482018054610ca19061225a565b80601f0160208091040260200160405190810160405280929190818152602001828054610ccd9061225a565b8015610d1a5780601f10610cef57610100808354040283529160200191610d1a565b820191906000526020600020905b815481529060010190602001808311610cfd57829003601f168201915b50505050508152602001600582015481526020016006820154815250509050600160008481548110610d4f57610d4e6122de565b5b9060005260206000209060070201600501819055507f34612b93358718834a881d1ac0ce5761ae32c154520e993ca471065abd5838ed8160000151826060015183608001518460400151604051610da994939291906124d3565b60405180910390a150919050565b60606000805480602002602001604051908101604052809291908181526020016000905b828210156110fb57838290600052602060002090600702016040518060e0016040529081600082018054610e0e9061225a565b80601f0160208091040260200160405190810160405280929190818152602001828054610e3a9061225a565b8015610e875780601f10610e5c57610100808354040283529160200191610e87565b820191906000526020600020905b815481529060010190602001808311610e6a57829003601f168201915b50505050508152602001600182018054610ea09061225a565b80601f0160208091040260200160405190810160405280929190818152602001828054610ecc9061225a565b8015610f195780601f10610eee57610100808354040283529160200191610f19565b820191906000526020600020905b815481529060010190602001808311610efc57829003601f168201915b50505050508152602001600282018054610f329061225a565b80601f0160208091040260200160405190810160405280929190818152602001828054610f5e9061225a565b8015610fab5780601f10610f8057610100808354040283529160200191610fab565b820191906000526020600020905b815481529060010190602001808311610f8e57829003601f168201915b50505050508152602001600382018054610fc49061225a565b80601f0160208091040260200160405190810160405280929190818152602001828054610ff09061225a565b801561103d5780601f106110125761010080835404028352916020019161103d565b820191906000526020600020905b81548152906001019060200180831161102057829003601f168201915b505050505081526020016004820180546110569061225a565b80601f01602080910402602001604051908101604052809291908181526020018280546110829061225a565b80156110cf5780601f106110a4576101008083540402835291602001916110cf565b820191906000526020600020905b8154815290600101906020018083116110b257829003601f168201915b505050505081526020016005820154815260200160068201548152505081526020019060010190610ddb565b50505050905090565b60606000828154811061111a576111196122de565b5b90600052602060002090600702016006015442101561116e576040517f08c379a0000000000000000000000000000000000000000000000000000000008152600401611165906125a6565b60405180910390fd5b600260008381548110611184576111836122de565b5b90600052602060002090600702016005018190555060008083815481106111ae576111ad6122de565b5b90600052602060002090600702016040518060e00160405290816000820180546111d79061225a565b80601f01602080910402602001604051908101604052809291908181526020018280546112039061225a565b80156112505780601f1061122557610100808354040283529160200191611250565b820191906000526020600020905b81548152906001019060200180831161123357829003601f168201915b505050505081526020016001820180546112699061225a565b80601f01602080910402602001604051908101604052809291908181526020018280546112959061225a565b80156112e25780601f106112b7576101008083540402835291602001916112e2565b820191906000526020600020905b8154815290600101906020018083116112c557829003601f168201915b505050505081526020016002820180546112fb9061225a565b80601f01602080910402602001604051908101604052809291908181526020018280546113279061225a565b80156113745780601f1061134957610100808354040283529160200191611374565b820191906000526020600020905b81548152906001019060200180831161135757829003601f168201915b5050505050815260200160038201805461138d9061225a565b80601f01602080910402602001604051908101604052809291908181526020018280546113b99061225a565b80156114065780601f106113db57610100808354040283529160200191611406565b820191906000526020600020905b8154815290600101906020018083116113e957829003601f168201915b5050505050815260200160048201805461141f9061225a565b80601f016020809104026020016040519081016040528092919081815260200182805461144b9061225a565b80156114985780601f1061146d57610100808354040283529160200191611498565b820191906000526020600020905b81548152906001019060200180831161147b57829003601f168201915b505050505081526020016005820154815260200160068201548152505090507f6ae77c5bf1ebeb12d95523f4ca013a33926cea138614320b9af10415973890ca81602001518260600151836080015184604001516040516114fc94939291906124d3565b60405180910390a150919050565b8585858585856000865111611554576040517f08c379a000000000000000000000000000000000000000000000000000000000815260040161154b90612612565b60405180910390fd5b6000855111611598576040517f08c379a000000000000000000000000000000000000000000000000000000000815260040161158f9061267e565b60405180910390fd5b60008451116115dc576040517f08c379a00000000000000000000000000000000000000000000000000000000081526004016115d3906126ea565b60405180910390fd5b6000835111611620576040517f08c379a000000000000000000000000000000000000000000000000000000000815260040161161790612756565b60405180910390fd5b60008211611663576040517f08c379a000000000000000000000000000000000000000000000000000000000815260040161165a906127c2565b60405180910390fd5b60008151116116a7576040517f08c379a000000000000000000000000000000000000000000000000000000000815260040161169e9061282e565b60405180910390fd5b4282116116e9576040517f08c379a00000000000000000000000000000000000000000000000000000000081526004016116e0906128c0565b60405180910390fd5b60006116f58486610495565b6080015114611739576040517f08c379a000000000000000000000000000000000000000000000000000000000815260040161173090612952565b60405180910390fd5b60006040518060e001604052808e81526020018d81526020018981526020018c81526020018b8152602001600081526020018a815250908060018154018082558091505060019003906000526020600020906007020160009091909190915060008201518160000190816117ad9190612b1e565b5060208201518160010190816117c39190612b1e565b5060408201518160020190816117d99190612b1e565b5060608201518160030190816117ef9190612c36565b5060808201518160040190816118059190612c36565b5060a0820151816005015560c082015181600601555050505050505050505050505050565b508054600082556007029060005260206000209081019061184b919061187d565b50565b6040518060a0016040528060608152602001606081526020016060815260200160608152602001600081525090565b5b808211156118f0576000808201600061189791906118f4565b6001820160006118a791906118f4565b6002820160006118b791906118f4565b6003820160006118c79190611934565b6004820160006118d79190611934565b600582016000905560068201600090555060070161187e565b5090565b5080546119009061225a565b6000825580601f106119125750611931565b601f0160209004906000526020600020908101906119309190611974565b5b50565b5080546119409061225a565b6000825580601f106119525750611971565b601f0160209004906000526020600020908101906119709190611974565b5b50565b5b8082111561198d576000816000905550600101611975565b5090565b6000604051905090565b600080fd5b600080fd5b6000819050919050565b6119b8816119a5565b81146119c357600080fd5b50565b6000813590506119d5816119af565b92915050565b6000602082840312156119f1576119f061199b565b5b60006119ff848285016119c6565b91505092915050565b600081519050919050565b600082825260208201905092915050565b60005b83811015611a42578082015181840152602081019050611a27565b60008484015250505050565b6000601f19601f8301169050919050565b6000611a6a82611a08565b611a748185611a13565b9350611a84818560208601611a24565b611a8d81611a4e565b840191505092915050565b600081519050919050565b600082825260208201905092915050565b6000611abf82611a98565b611ac98185611aa3565b9350611ad9818560208601611a24565b611ae281611a4e565b840191505092915050565b6000819050919050565b611b0081611aed565b82525050565b611b0f816119a5565b82525050565b600060e0820190508181036000830152611b2f818a611a5f565b90508181036020830152611b438189611a5f565b90508181036040830152611b578188611a5f565b90508181036060830152611b6b8187611ab4565b90508181036080830152611b7f8186611ab4565b9050611b8e60a0830185611af7565b611b9b60c0830184611b06565b98975050505050505050565b600080fd5b600080fd5b7f4e487b7100000000000000000000000000000000000000000000000000000000600052604160045260246000fd5b611be982611a4e565b810181811067ffffffffffffffff82111715611c0857611c07611bb1565b5b80604052505050565b6000611c1b611991565b9050611c278282611be0565b919050565b600067ffffffffffffffff821115611c4757611c46611bb1565b5b611c5082611a4e565b9050602081019050919050565b82818337600083830152505050565b6000611c7f611c7a84611c2c565b611c11565b905082815260208101848484011115611c9b57611c9a611bac565b5b611ca6848285611c5d565b509392505050565b600082601f830112611cc357611cc2611ba7565b5b8135611cd3848260208601611c6c565b91505092915050565b60008060408385031215611cf357611cf261199b565b5b600083013567ffffffffffffffff811115611d1157611d106119a0565b5b611d1d85828601611cae565b925050602083013567ffffffffffffffff811115611d3e57611d3d6119a0565b5b611d4a85828601611cae565b9150509250929050565b600082825260208201905092915050565b6000611d7082611a08565b611d7a8185611d54565b9350611d8a818560208601611a24565b611d9381611a4e565b840191505092915050565b600082825260208201905092915050565b6000611dba82611a98565b611dc48185611d9e565b9350611dd4818560208601611a24565b611ddd81611a4e565b840191505092915050565b611df1816119a5565b82525050565b600060a0830160008301518482036000860152611e148282611d65565b91505060208301518482036020860152611e2e8282611d65565b91505060408301518482036040860152611e488282611daf565b91505060608301518482036060860152611e628282611daf565b9150506080830151611e776080860182611de8565b508091505092915050565b60006020820190508181036000830152611e9c8184611df7565b905092915050565b60006020820190508181036000830152611ebe8184611ab4565b905092915050565b600081519050919050565b600082825260208201905092915050565b6000819050602082019050919050565b611efb81611aed565b82525050565b600060e0830160008301518482036000860152611f1e8282611d65565b91505060208301518482036020860152611f388282611d65565b91505060408301518482036040860152611f528282611d65565b91505060608301518482036060860152611f6c8282611daf565b91505060808301518482036080860152611f868282611daf565b91505060a0830151611f9b60a0860182611ef2565b5060c0830151611fae60c0860182611de8565b508091505092915050565b6000611fc58383611f01565b905092915050565b6000602082019050919050565b6000611fe582611ec6565b611fef8185611ed1565b93508360208202850161200185611ee2565b8060005b8581101561203d578484038952815161201e8582611fb9565b945061202983611fcd565b925060208a01995050600181019050612005565b50829750879550505050505092915050565b600060208201905081810360008301526120698184611fda565b905092915050565b600067ffffffffffffffff82111561208c5761208b611bb1565b5b61209582611a4e565b9050602081019050919050565b60006120b56120b084612071565b611c11565b9050828152602081018484840111156120d1576120d0611bac565b5b6120dc848285611c5d565b509392505050565b600082601f8301126120f9576120f8611ba7565b5b81356121098482602086016120a2565b91505092915050565b60008060008060008060c0878903121561212f5761212e61199b565b5b600087013567ffffffffffffffff81111561214d5761214c6119a0565b5b61215989828a016120e4565b965050602087013567ffffffffffffffff81111561217a576121796119a0565b5b61218689828a016120e4565b955050604087013567ffffffffffffffff8111156121a7576121a66119a0565b5b6121b389828a01611cae565b945050606087013567ffffffffffffffff8111156121d4576121d36119a0565b5b6121e089828a01611cae565b93505060806121f189828a016119c6565b92505060a087013567ffffffffffffffff811115612212576122116119a0565b5b61221e89828a016120e4565b9150509295509295509295565b7f4e487b7100000000000000000000000000000000000000000000000000000000600052602260045260246000fd5b6000600282049050600182168061227257607f821691505b6020821081036122855761228461222b565b5b50919050565b600081905092915050565b60006122a182611a98565b6122ab818561228b565b93506122bb818560208601611a24565b80840191505092915050565b60006122d38284612296565b915081905092915050565b7f4e487b7100000000000000000000000000000000000000000000000000000000600052603260045260246000fd5b60008190508160005260206000209050919050565b6000815461232f8161225a565b612339818661228b565b9450600182166000811461235457600181146123695761239c565b60ff198316865281151582028601935061239c565b6123728561230d565b60005b8381101561239457815481890152600182019150602081019050612375565b838801955050505b50505092915050565b60006123b18284612322565b915081905092915050565b7f4e487b7100000000000000000000000000000000000000000000000000000000600052601160045260246000fd5b60006123f6826119a5565b91507fffffffffffffffffffffffffffffffffffffffffffffffffffffffffffffffff8203612428576124276123bc565b5b600182019050919050565b600061243e826119a5565b9150612449836119a5565b9250828203905081811115612461576124606123bc565b5b92915050565b7f4461746120686173206e6f74206265656e2072656c6561736564207965740000600082015250565b600061249d601e83611aa3565b91506124a882612467565b602082019050919050565b600060208201905081810360008301526124cc81612490565b9050919050565b600060808201905081810360008301526124ed8187611a5f565b905081810360208301526125018186611ab4565b905081810360408301526125158185611ab4565b905081810360608301526125298184611a5f565b905095945050505050565b7f44656372797074696f6e206b657920686173206e6f74206265656e2072656c6560008201527f6173656420796574000000000000000000000000000000000000000000000000602082015250565b6000612590602883611aa3565b915061259b82612534565b604082019050919050565b600060208201905081810360008301526125bf81612583565b9050919050565b7f456e637279707465642064617461206973207265717569726564000000000000600082015250565b60006125fc601a83611aa3565b9150612607826125c6565b602082019050919050565b6000602082019050818103600083015261262b816125ef565b9050919050565b7f44656372797074696f6e206b6579206973207265717569726564000000000000600082015250565b6000612668601a83611aa3565b915061267382612632565b602082019050919050565b600060208201905081810360008301526126978161265b565b9050919050565b7f4f776e6572206973207265717569726564000000000000000000000000000000600082015250565b60006126d4601183611aa3565b91506126df8261269e565b602082019050919050565b60006020820190508181036000830152612703816126c7565b9050919050565b7f44617461206e616d652069732072657175697265640000000000000000000000600082015250565b6000612740601583611aa3565b915061274b8261270a565b602082019050919050565b6000602082019050818103600083015261276f81612733565b9050919050565b7f52656c656173652074696d652069732072657175697265640000000000000000600082015250565b60006127ac601883611aa3565b91506127b782612776565b602082019050919050565b600060208201905081810360008301526127db8161279f565b9050919050565b7f4861736820697320726571756972656400000000000000000000000000000000600082015250565b6000612818601083611aa3565b9150612823826127e2565b602082019050919050565b600060208201905081810360008301526128478161280b565b9050919050565b7f52656c656173652074696d65206d75737420626520696e20746865206675747560008201527f7265000000000000000000000000000000000000000000000000000000000000602082015250565b60006128aa602283611aa3565b91506128b58261284e565b604082019050919050565b600060208201905081810360008301526128d98161289d565b9050919050565b7f44617461206e616d6520616e64206f776e657220636f6d62696e6174696f6e2060008201527f616c726561647920657869737473000000000000000000000000000000000000602082015250565b600061293c602e83611aa3565b9150612947826128e0565b604082019050919050565b6000602082019050818103600083015261296b8161292f565b9050919050565b60008190508160005260206000209050919050565b60006020601f8301049050919050565b600082821b905092915050565b6000600883026129d47fffffffffffffffffffffffffffffffffffffffffffffffffffffffffffffffff82612997565b6129de8683612997565b95508019841693508086168417925050509392505050565b6000819050919050565b6000612a1b612a16612a11846119a5565b6129f6565b6119a5565b9050919050565b6000819050919050565b612a3583612a00565b612a49612a4182612a22565b8484546129a4565b825550505050565b600090565b612a5e612a51565b612a69818484612a2c565b505050565b5b81811015612a8d57612a82600082612a56565b600181019050612a6f565b5050565b601f821115612ad257612aa381612972565b612aac84612987565b81016020851015612abb578190505b612acf612ac785612987565b830182612a6e565b50505b505050565b600082821c905092915050565b6000612af560001984600802612ad7565b1980831691505092915050565b6000612b0e8383612ae4565b9150826002028217905092915050565b612b2782611a08565b67ffffffffffffffff811115612b4057612b3f611bb1565b5b612b4a825461225a565b612b55828285612a91565b600060209050601f831160018114612b885760008415612b76578287015190505b612b808582612b02565b865550612be8565b601f198416612b9686612972565b60005b82811015612bbe57848901518255600182019150602085019450602081019050612b99565b86831015612bdb5784890151612bd7601f891682612ae4565b8355505b6001600288020188555050505b505050505050565b601f821115612c3157612c028161230d565b612c0b84612987565b81016020851015612c1a578190505b612c2e612c2685612987565b830182612a6e565b50505b505050565b612c3f82611a98565b67ffffffffffffffff811115612c5857612c57611bb1565b5b612c62825461225a565b612c6d828285612bf0565b600060209050601f831160018114612ca05760008415612c8e578287015190505b612c988582612b02565b865550612d00565b601f198416612cae8661230d565b60005b82811015612cd657848901518255600182019150602085019450602081019050612cb1565b86831015612cf35784890151612cef601f891682612ae4565b8355505b6001600288020188555050505b50505050505056fea26469706673582212202c5b16407a2d354cf376200f75c1cc04b5c845d9e2758a26c935476f6747995c64736f6c63430008130033",
  "linkReferences": {},
  "deployedLinkReferences": {}
}